:020000040800F2
:10000000582A00203102000895480008633F000884
:10001000AD4700083B1700084154000800000000ED
:10002000000000000000000000000000AD510008CA
:100030009918000800000000C1490008AF510008ED
:100040004B0200084B0200084B0200084B0200085C
:100050004B0200084B0200084B0200084B0200084C
:100060004B0200084B0200084B0200084B0200083C
:100070004B0200084B0200085918000869180008D4
:1000800079180008891800084B0200084B02000884
:100090004B0200084B0200084B0200084B0200080C
:1000A0004B0200084B0200084B0200084B020008FC
:1000B0004B0200084B0200084B0200084B020008EC
:1000C0004B0200084B0200084B0200084B020008DC
:1000D0004B020008F9530008095400084B020008BD
:1000E0004B0200084B0200084B0200084B020008BC
:1000F0004B0200084B0200084B0200084B020008AC
:100100004B0200084B0200084B0200084B0200089B
:100110004B0200084B020008B95100084B020008CE
:100120004B0200084B0200084B0200084B0200087B
:1001300000F002F800F06DF80AA090E8000C82448C
:100140008344AAF10107DA4501D100F062F8AFF269
:10015000090EBAE80F0013F0010F18BFFB1A43F0A5
:1001600001031847B4B30000D4B300000A444FF0B1
:10017000000C10F8013B13F0070408BF10F8014B06
:100180001D1108BF10F8015B641E05D010F8016B4B
:10019000641E01F8016BF9D113F0080F1EBF10F8AF
:1001A000014BAD1C0C1B09D16D1E58BF01F801CBD2
:1001B000FAD505E014F8016B01F8016B6D1EF9D555
:1001C0009142D6D37047000000230024002500266A
:1001D000103A28BF78C1FBD8520728BF30C148BFAA
:1001E0000B60704766290AF09885002070471FB59C
:1001F0009DE8030000F022FA00F0E6FC0400002075
:10020000002109F083F8E06000F0EAF91FBD10B5A5
:1002100010BD00F01FFE1146FFF7E9FF08F0C8FE11
:1002200000F03DFE03B4FFF7F2FF03BC00F00CFE4C
:100230000948804709480047FEE7FEE7FEE7FEE77A
:10024000FEE7FEE7FEE7FEE7FEE7FEE704480549B6
:10025000054A064B70470000B751000831010008FD
:1002600058240020582A0020582600205826002014
:1002700070B50D460646041F00F0C4F9D0F800C062
:10028000C5B1E6B105F10B0020F00703AB423CBF5E
:10029000002070BD2068984238BFDCF8042013D3DA
:1002A000C11A08292FD3E01840F8041B236000F07E
:1002B00023FA28E0304600F01FFA002070BD2846DF
:1002C000BDE8704000F0E9B9002A18BFA2423CBF67
:1002D00094465268F8D30119914216D11168084426
:1002E000984212D3C11A08293CBF2060506808D335
:1002F0005168E0184160216812681144C91A016010
:100300002360CCF80400201D70BD181F00F0C5F953
:10031000050007D021680A1F211D00F004F9201DE7
:1003200000F0EAF9284670BD0FB41CB5074B06AAC9
:100330007B4469460090059800F023FC0020694644
:1003400000F032FC1CBC5DF814FB000075080000D6
:100350002DE9F0474FF0000A89460446C0F820A076
:100360002046E1688847002876D0252806D0D4E9C1
:1003700001219047206A401C2062F1E7E168204695
:1003800000258847C4F81CA006460027C4F818A01A
:100390002A2E09D0304608F0C5F938B304EB870897
:1003A000303EC8F8186019E059F8041B204604EBE9
:1003B00087029161E1688847012F064618D1E069FC
:1003C000002820DA25F020051DE0D8F8180000EB01
:1003D000800006EB40003038C8F818002046E1687D
:1003E0008847064608F09EF90028EED1012F0AD072
:1003F0002E2E08D12046E16888477F1C0646022F32
:1004000045F02005C4DBA069002803DA404245F02E
:100410000105A061E80701D025F01005B6B1A6F1ED
:100420004100192802D8203645F400654A46314675
:10043000204625604D46FFF7D5FE58B1012806D06D
:10044000ED1D25F0070000F1080989E704E005F13A
:10045000040985E730468AE7206ABDE8F08710B5D1
:10046000431C02E010F8011B71B18107FAD14FF073
:10047000013202C88C1A8C4314EAC211F9D0C01A96
:100480000A0603D0C01E10BDC01A10BD0A0401D058
:10049000801E10BD0902FCD0401E10BD032A40F290
:1004A000308010F0030C00F0158011F8013BBCF116
:1004B000020F624498BF11F801CB00F8013B38BF2E
:1004C00011F8013BA2F1040298BF00F801CB38BF3C
:1004D00000F8013B11F0030300F02580083AC0F05A
:1004E000088051F8043B083A51F804CBA0E8081002
:1004F000F5E7121D5CBF51F8043B40F8043BAFF335
:100500000080D20724BF11F8013B11F801CB48BF8E
:1005100011F8012B24BF00F8013B00F801CB48BFC4
:1005200000F8012B704710B5203AC0F00B80B1E8FD
:100530001850203AA0E81850B1E81850A0E8185018
:10054000BFF4F5AF5FEA027C24BFB1E81850A0E821
:10055000185044BF18C918C0BDE810405FEA827C3B
:1005600024BF51F8043B40F8043B08BF7047D20752
:1005700028BF31F8023B48BF11F8012B28BF20F8F3
:10058000023B48BF00F8012B70474FF0000200B556
:10059000134694469646203922BFA0E80C50A0E8A6
:1005A0000C50B1F12001BFF4F7AF090728BFA0E854
:1005B0000C5048BF0CC05DF804EB890028BF40F820
:1005C000042B08BF704748BF20F8022B11F0804F62
:1005D00018BF00F8012B7047704770477047000044
:1005E00070B5064C7C44064D7D4403E020682044F1
:1005F0008047241DAC42F9D170BD00006CAF0000F3
:100600006CAF00000048704700240020704770471E
:100610007047704738B504460A4600206946AFF374
:100620000080002808BF38BD02460099204600F02F
:10063000DAFA012038BD012000F0E7BBF8B5AFF3CE
:100640000080054600200C46102000BF0646A81971
:10065000A0420DD9324669460020AFF30080070062
:1006600008BF00F0D2FB0098A04218BF0546C4198D
:10067000FFF7C8FF05600746F01D20F00700461988
:10068000284600F0A9FAB44208BFF8BDA21B3146C3
:100690003868BDE8F84000F0A6BA70B50646FFF726
:1006A000B1FF056806F10B0020F00704B4429CBFBF
:1006B000002070BD2B466A68BAB11068A04210D302
:1006C00004F1080188423CBF5068586007D3516864
:1006D000101941601168091B016058601460101DF9
:1006E00070BD13465268002AE7D121462846FFF71D
:1006F00091FF0028DED170BD70B50446051FFFF7DD
:1007000081FF0068002C14BF446870BD002C18BF26
:10071000AC423CBF20466468F8D301680A18AA427C
:1007200018BF456003D12A68054611440160286856
:100730004119A1421CBF6C6070BD6168696021688D
:100740000844286070BD10B500F042FA006810BD82
:1007500010B5044600F03CFA046010BD70472DE966
:10076000FF4F0C461E464FF0FF378BB0D2E9000119
:10077000DDF860800A908A46C1F30A5505B93D4606
:10078000002108464FF00000BAF1000F00F44000CD
:1007900005DA00EB80004FF4400101EA50004FEA17
:1007A0009059B9F1010F00DDB9460A9850EA4A00A4
:1007B0000ED044F61050A5F2FF3545432F14B8F182
:1007C000000F1ED07542291E1EDDC9F100021CE07B
:1007D000B8F1010F4FF0000001D0302103E0F243E7
:1007E00005E02154401CB042FBDB304600220021D2
:1007F00021540B99C1F80880C1E900200FB0BDE871
:10080000F08FBD1B6D1CDEE74A4600DA694206A880
:1008100000F088FA06AB93E8070003AB83E8070013
:1008200050460A9900F0CEFB8DE80700A0F5005075
:100830001F3800900398002D09DD42F21F014A463F
:10084000084403A90390684600F02DFE08E0A0F5D7
:1008500000504A461F3803A90390684600F037FE4F
:100860008DE807000004000C03D04FF0FF30410872
:1008700000E01046B8F1000F03D0002200921546A8
:100880001EE0751E05D400F0C8F9303262556D1EA9
:10089000F9D5B3460122084302D000227F1C04E0B0
:1008A0002078302801D100227F1E002A099786D0A7
:1008B0001DE0112D07DA00F0B0F9303262556D1CE1
:1008C00050EA0102F5D1084302D00098C8B10EE009
:1008D0000021681E05E0235C625C63542254401EC4
:1008E000491C8142F7DBAB46A81B401E0990002043
:1008F00004F80B000B98099AC0F80880C0E9002B97
:100900007CE711264FF0000859E72DE9F04F8846A3
:100910000446D21D22F0070191B0D1E90001CDE9D2
:100920000A0107F03EFB02460B98C00F01D02D20B4
:1009300007E02068810701D52B2002E0202101EA91
:10094000C000032A099001D0072A05DB034641466F
:10095000204600F0A7F90BE12078800601D5E06978
:1009600000E00620B8F1650F814606D0B8F1660FA9
:1009700018D0B8F1670F70D131E00020B9F1110F34
:10098000009001DB112301E009F101030AAA01A98A
:100990000CA8FFF7E4FEDDE90C70002609F1010563
:1009A000834647E001204B4600904FF000470AAADB
:1009B00001A90CA8FFF7D3FEDDE90DB00C995D4647
:1009C000002610B909F101000D18B9EB050003D498
:1009D000C0F1FF3609F10105A5EB09002BE0B9F1E3
:1009E000010F01DA4FF001090020B9F1110F009059
:1009F000484601DD112300E003460AAA01A90CA81C
:100A0000FFF7ADFEDDE90C704D46002683462078E9
:100A100000070AD4AB4500DA5D4601A8012D04DDCC
:100A2000411911F8011C302907D04F4502DA17F19E
:100A3000040F04DA012082460FE06D1EEEE7002F5E
:100A400002DCED1B3E4403E0781CA84200DD7D1C67
:100A5000B81B00F1010A4FF000472078000703D4CB
:100A6000AA4501DB4FF0FF3A0021B7F1004F0DF12D
:100A700043088DF8431024D002202B23002F01DAE5
:100A80007F422D230A21021EA0F1010000DC5FB18C
:100A900097FBF1FC97FBF1F201FB1C7C17460CF174
:100AA000300C08F801CDEEE7A8F1010003702188B1
:100AB000090501D5452100E06521A0F1010800F8F4
:100AC000011C09980FA9A1EB0807FF1D00B1012027
:100AD000411901EBEA70A1693844081A401EA0616F
:100AE0002078C00602D42046AFF30080099828B1D0
:100AF000D4E901219047206A401C20622078C0067A
:100B000022D52046AFF300801EE0002E04DBB34563
:100B100002DD01A8805D00E03020D4E9012190478A
:100B2000206A401C2062761CAAF101005FEA000ADC
:100B30000AD100F049F8C0680168405CD4E901219D
:100B40009047206A401C2062281EA5F10105DCDCCC
:100B500007E0D4E9012118F8010B9047206A401CF6
:100B60002062381EA7F10107F3DC2046AFF30080B6
:100B7000032011B043E6000001694A1C02610878B5
:100B8000704700B58FB0CDE90131002105910549CD
:100B90007944CDE9031011466846FFF7D9FB0FB041
:100BA00000BD0000E5FFFFFF0A6802F8010B0A60C4
:100BB000704710B500F030F9BDE8104000F020B9E2
:100BC00000487047F8230020004870471824002090
:100BD00000487047F823002000210160C0E901109F
:100BE000704710207047034640688C46002818BFA5
:100BF00088423CBF03464068F8D3186818448842CE
:100C000007D00CF1030020F00700001D411A521A12
:100C10000146081D0A60FFF76FBD30B5B0F10A024A
:100C20004FEA900E71F100034EEA817EB0EB0E00A8
:100C300061EB91014FEA101E4EEA017E10EB0E00AF
:100C400041EB11114FEA102E4EEA016E10EB0E002F
:100C500041EB11214FEA104E4EEA014E10EB0E000F
:100C600041EB1141401841F100014FEAD00040EA48
:100C700041704FEAD10110EB80054FEA810444EA4C
:100C8000907444EB01046D1944EB0404521BA3411E
:100C90004FF0000348BF0A3200D530BD401C41F17F
:100CA000000130BD2DE9F0411F46044603260168CE
:100CB000072A01F4006004DB08B116A505E016A5BB
:100CC00003E008B115A500E015A521F01000206093
:100CD000A069C01EA0610FB1401EA0612046AFF305
:100CE00000804FB1D4E9012138469047206A401C6A
:100CF0002062C01C206206E0206AFAE7D4E90121E4
:100D000015F8010B9047761EF8D22046AFF300800D
:100D1000BDE8F0814E414E006E616E00494E4600C6
:100D2000696E66002DE9F047814616468AB0334861
:100D300078440DC88DE80D0030487844801C03AC21
:100D40000DC884E80D0041F69B300844372190FB24
:100D5000F1F290FBF1F5A5F1800501FB12041B3CBB
:100D600002D56442012000E00020DFF890A0804618
:100D70000027FA44AAF1BE0A0DE0E00709D0324686
:100D8000684607EB47010AEB810100F0A0FB8DE804
:100D9000070064107F1C002CEFD1184F7F44AC3F3C
:100DA00018E0E80714D007EB04100DF1180A90E8DA
:100DB0000E008AE80E00C068F04201D19819089030
:100DC000324606A903A800F082FB03AB83E80700C4
:100DD0006D10641C002DE4D132466946B8F1000F55
:100DE00003A802D000F05FFB01E000F070FBC9E94E
:100DF0000001C9F808200AB0BDE8F087A8A30000E8
:100E0000002801D000F020B8704710B500F06AF853
:100E1000BDE81040FFF7F4BF10B5002102A000F0BC
:100E200047F8012010BD00005349475056464E3A3E
:100E30002050757265207669727475616C20666EDB
:100E40002063616C6C65640001491820ABBEFEE74D
:100E5000260002007546FFF7B3FEAE460500694660
:100E6000534620F00700854618B020B5FFF7EEF98D
:100E7000BDE820404FF000064FF000074FF000089B
:100E80004FF0000B21F00701AC46ACE8C009ACE81C
:100E9000C009ACE8C009ACE8C0098D46704710B580
:100EA0000446AFF300802046BDE81040FFF7BAB912
:100EB00070B505460C460A2000E06D1C00F07AF87B
:100EC00035B128780028F8D102E0641C00F072F8EF
:100ED00014B120780028F8D1BDE870400A2000F055
:100EE00069B8000010B5012805D0002103A0FFF764
:100EF000DFFF012010BD09A1F8E700005349475268
:100F0000544D454D3A204F7574206F6620686561D9
:100F100070206D656D6F7279000000003A204865A1
:100F20006170206D656D6F727920636F727275707C
:100F3000746564004FF0013C50F8042B51F8043BF9
:100F40009A4221D1A2EB0C03934313EACC1317D19D
:100F500050F8042B51F8043B9A4215D1A2EB0C0334
:100F6000934313EACC130BD150F8042B51F8043BF4
:100F70009A4209D1A2EB0C03934313EACC13DBD0C2
:100F80004FF00000704700BFD01A01BAB1FA81F1EA
:100F900001F0180122FA01F0CB40C1F12001DBB2CF
:100FA000C0B2C01A2CFA01F3D11A914311EAC3114D
:100FB000E6D1704708B569468DF800000320ABBE46
:100FC00008BD70475FEA400C08BF91F0000F4FEA80
:100FD0008C234FEAC12243EA51514FEA1C5018BFFB
:100FE00000F5F0404FEA300018BF41F000415FEAE1
:100FF0006C5C00F02980BCF1FF3F08BF40F08040EE
:101000007047130C06BF12044FF0100C4FF0000C89
:10101000130E04BF12020CF1080C130F04BF1201CF
:101020000CF1040C930F04BF92000CF1020CD30FCF
:1010300004BF52000CF1010C11464FF00002A0F168
:101040001F00A0EB0C00704711F0004F08BF704765
:1010500031F000413FF4D5AF0B0C06BF09044FF04F
:10106000100C4FF0000C0B0E04BF09020CF1080C21
:101070000B0F04BF09010CF1040C8B0F04BF890096
:101080000CF1020CCB0F04BF49000CF1010CCCF1A8
:101090002003A0EB0C0022FA03F302FA0CF241EA5F
:1010A000030100F10100704720F07F4C80EA03004B
:1010B00023F07F47ACEB070303F57C5300F00040BF
:1010C00003F1FF032DE980494FEA154B09B44FEABC
:1010D000144325EA0B4E24EA03480FF2042606EBDC
:1010E000132749083E785FEA320203FB0667C7F51B
:1010F000000707FB06F64FEA54374FEAD64606F1DB
:10110000020607FB066CCCF1005C4FEA1C472CEA98
:10111000074C07FB06F40CFB06F504EB15464FEAFB
:10112000961634BF00204FF000404FEAD13706FB3F
:1011300007FC4FEA1C4C0CFB0BF7D21B03FB0CF714
:1011400061EB07010CFB0EF7B0EB074072EB1742A7
:101150000CFB08F734BFA2EB0742B2EB074261EB8E
:1011600017414FEA0C444FEA910706FB07FC4FEA90
:101170001C4C0CFB0BF7B0EBC74072EB573203FB78
:101180000CF734BFA2EBC742B2EBC74261EB573159
:101190000CFB0EF7B0EBC70072EB57720CFB08F7B5
:1011A00034BFA2EBC702B2EBC70261EB5771039FDA
:1011B0004FEA816141EA921104EBCC044FEAD13746
:1011C0004FEA826206FB07FC42EA90124FEA806017
:1011D0004FEA1C4C0CFB0BF7D21B03FB0CF761EB2B
:1011E00007010CFB0EF7B0EB074072EB17420CFB4C
:1011F00008F734BFA2EB0742B2EB074261EB17419D
:101200004FEA8C554FEA910704EB9C2406FB07FC40
:101210004FEA1C4C0CFB0BF7B0EBC74072EB57329C
:1012200003FB0CF734BFA2EBC742B2EBC74261EB42
:1012300057310CFB0EF7B0EBC70072EB57720CFB8B
:1012400008F734BFA2EBC702B2EBC70261EB5771DC
:1012500015EB4C254FEA816141EA92114FEA826217
:101260004FEAD13742EA901206FB07FC44F1000432
:101270004FEA80604FEA1C4C0CFB0BF7D21B03FBC0
:101280000CF761EB07010CFB0EF7B0EB074072EBBC
:1012900017420CFB08F734BFA2EB0742B2EB074240
:1012A00061EB174115EB1C154FEA813141EA924180
:1012B0004FEA823242EA90424FEA80304FEA0C769F
:1012C00044F1000448EA03434EEA0B484FF0000E95
:1012D000B2EB080C71EB030724BF624639464EEBB4
:1012E0000E0E4FF0000B0018524149414BEB0B0B17
:1012F000B2EB080C71EB03077BF1000B24BF6246D5
:1013000039464EEB0E0E4FF0000B0018524149418A
:101310004BEB0B0BB2EB080C71EB03077BF1000BF3
:1013200024BF624639464EEB0E0E51EA020718BF43
:1013300046F0010616EB0E7655F1000254F100015D
:1013400003D5BDE88901BDE80088BDE88901BDE895
:101350000048B619524141EB0101A3F10103704766
:1013600080807F7E7D7C7B7A7978777676757473E2
:10137000727171706F6E6E6D6C6C6B6A6A696868A1
:10138000676666656464636362616160605F5F5E37
:101390005E5D5D5C5C5B5B5A5A59595858575756AD
:1013A0005655555554545353525252515150505012
:1013B0004F4F4F4E4E4D4D4D4C4C4C4B4B4B4A4A64
:1013C0004A494949484848474747474646464545A8
:1013D00045444444444343434342424242414141E1
:1013E000002B26D4770021D01CB54FEA370703B471
:1013F0004FF010004FF010014FF000000FBCBDE89F
:1014000010400BF1010BBBF1010F08BF5FEA17079A
:1014100022BF12F1010211F101014FF0004143F12D
:10142000000300F0004043EA00007047F9D357087A
:10143000DAE746EA064613F1400F4FEA16461FDD8B
:1014400013F1200FDFBF16430A46002120335B4211
:10145000C8D0C3F1200746EA064602FA07F74FEA6A
:10146000164646EA0706C3F1200722FA03F201FAFC
:1014700007F721FA03F14FF0000342EA0702B1E750
:1014800046EA020646EA06464FEA164646EA0106DC
:10149000BCBF46EA0646360C4FF000034FF0000290
:1014A0004FF000019EE72DE9C048934630B491E823
:1014B000380007C831EA400C48BF34EA430C03D572
:1014C000FFF7F2FDFFF78CFFF0BCBDE800882DE9C7
:1014D000C048934630B491E8380007C810F0804FF8
:1014E00008BF13F0804F03D100F005F8FFF778FF35
:1014F000F0BCBDE8008820F07F4780EA030023F0BD
:101500007F4C07EB0C03A3F57C5300F00040A3F1E4
:10151000FE0392F0000F00F0B38095F0000F00F092
:1015200077802DE901494FEA11404FEA144621EA3C
:10153000004800FB06FC24EA064708FB06F607FB0A
:1015400008F800FB07F718EB06484CEB164C4FEA7F
:10155000124B18EB07484FEA15464CEB174022EAAE
:101560000B4E0BFB06FC25EA06470EFB06F607FBB7
:101570000EFE0BFB07F71EEB064E4CEB164C4FF026
:1015800000061EEB074E4CEB174B18EB0B0840F117
:10159000000018EB0E0B58EB000840F100008F1A0A
:1015A0004FF000013CBFC943661B14BFB5EB040CF0
:1015B00000213CBFC943F61B4FEA17444EEA8E0E8A
:1015C00027EA04454FEA1C4704FB07622CEA074C54
:1015D00005FB07F70CFB05F604FB0CFC16EB0746B6
:1015E00042EB174216EB0C4642EB1C421BEB060685
:1015F00058EB0202414146EA9E0601D5BDE8018949
:10160000B619524141EB0101A3F10103BDE8018983
:101610004FEA14454FEA114724EA054621EA074CF0
:1016200005FB07F406FB07F70CFB06F105FB0CFCBA
:1016300011EB074144EB17444FEA124711EB0C4101
:1016400044EB1C4422EA074C05FB07F206FB07F7B4
:101650000CFB06F605FB0CFC16EB074642EB1742AB
:1016600016EB0C4642EB1C456A1854F1000148BFCA
:101670007047B619524141EB0101A3F101037047D4
:1016800095F0000F37D04FEA11424FEA144721EA94
:10169000024624EA074C02FB07F106FB07F70CFBA6
:1016A00006F402FB0CFC14EB074441EB17414FEA34
:1016B000154714EB0C4441EB1C4125EA074C02FB97
:1016C00007F506FB07F70CFB06F602FB0CFC16EB16
:1016D000074645EB174516EB0C4645EB1C42121925
:1016E00051F1000148BF7047B619524141EB010169
:1016F000A3F1010370474FEA14454FEA114724EA6A
:10170000054621EA074C05FB07F106FB07F70CFB32
:1017100006F24FF0000605FB0CFC12EB074241EB12
:10172000174112EB0C4251EB1C4148BF7047921815
:1017300041EB0101A3F10103704700BFFEE7000088
:101740002DE9F047044660682060A0686060174992
:10175000A06908F0CFFFA0602069E06061692161A5
:101760001348216909F0D4F807461248E16809F0E6
:10177000CFF880464FF08040616809F0C9F8814693
:10178000A168206808F042FF8246494608F03EFF03
:101790000646414608F03AFF0546394608F036FF4E
:1017A00060616069E061BDE8F087000067BFFF42EB
:1017B0007E0BDE3F021944BF2DE9FC5F04466068E2
:1017C0002060A0686060E068A0601E49206A08F0A0
:1017D00091FFE06060692061A1696161E169A161D7
:1017E0001948A16909F094F801901848616909F055
:1017F0008FF881461648216909F08AF80090D4E9EB
:10180000010108F003FF8346124909F081F8804680
:10181000E168206808F0FAFE8246414608F0F6FECC
:101820000746009908F0F2FE0646494608F0EEFE2B
:101830000546019908F0EAFEE061E0696062BDE8F2
:10184000FC9F00006D85AC432BF1174020F5F6BFDF
:101850001736083F0000404010B5024800F072F90A
:1018600010BD00004407002010B5024800F06AF9DE
:1018700010BD00000007002010B5024800F062F91A
:1018800010BD00008807002010B5024800F05AF98A
:1018900010BD0000CC070020704772B600BFFEE705
:1018A0002DE9F74FA0B014464FF00009CA46CB46C9
:1018B00000201F9000BF18E001AADDE9200104F01C
:1018C000B3FB052000F09EFB5046049908F09EFEF5
:1018D00082465846059908F099FE834606991F9856
:1018E00008F094FE1F9009F10109B9F1640FE3DBE0
:1018F000504608F05FFE07460022114B08F014FA2C
:10190000054608F023F9A061584608F053FE074643
:1019100000220B4B08F008FA054608F017F9E061C1
:101920001F9808F047FE07460022054B08F0FCF917
:10193000054608F00BF9206223B0BDE8F08F0000E7
:10194000000059400146002291F82100022808D0E9
:101950000420886300BF002081F8200000BF012020
:1019600070470868006820F00E000B68186008686F
:10197000006820F001000B68186091F840300120E9
:101980009840CB6B5860012081F8210000BF0020F7
:1019900081F8200000BF1046E2E7000070B5044661
:1019A000002594F82100022803D00420A06301251B
:1019B000C1E02068006820F00E00216808602068FF
:1019C000006820F00100216808605C4920688842B6
:1019D00052D95A4978392068884201D1012047E01C
:1019E000564964392068884201D1102040E05349AB
:1019F00050392068884201D1801539E04F493C397F
:101A00002068884201D1801432E04C49283920688E
:101A1000884202D14FF480302AE0484914392068C6
:101A2000884202D14FF4801022E044492068884265
:101A300001D140041CE042492068884201D10120C4
:101A400016E03F4914312068884201D110200FE090
:101A50003B4928312068884201D1801508E0384987
:101A60003C312068884201D1801401E04FF480307D
:101A70003349091F086051E03049783920688842AD
:101A800001D1012047E02D4964392068884201D105
:101A9000102040E0294950392068884201D1801542
:101AA00039E026493C392068884201D1801432E06F
:101AB000224928392068884202D14FF480302AE038
:101AC0001E4914392068884202D14FF4801022E068
:101AD0001A492068884201D140041CE01849206856
:101AE000884201D1012016E015491431206888424E
:101AF00001D110200FE0124928312068884201D11D
:101B0000801508E00E493C312068884201D18014DC
:101B100001E04FF48030094980394860012084F8A1
:101B2000210000BF002084F8200000BF606B10B1CE
:101B30002046616B8847284670BD00008000024047
:101B40000804024070B50446E06B0568206806682A
:101B500094F84010042088402840002875D006F0F2
:101B600004000028FAD02068006800F0200028B99E
:101B70002068006820F0040021680860D5492068CA
:101B8000884254D9D34978392068884201D1042049
:101B900049E0D04964392068884201D1402042E0C0
:101BA000CC4950392068884201D100153BE0C94931
:101BB0003C392068884202D14FF4804033E0C54967
:101BC00028392068884202D14FF480202BE0C14997
:101BD00014392068884202D14FF4800023E0BD49C7
:101BE0002068884201D1C0041DE0BB4920688842BA
:101BF00001D1042017E0B84914312068884201D18E
:101C0000402010E0B44928312068884201D10015F5
:101C100009E0B1493C312068884202D14FF480404C
:101C200001E04FF48020AC49091F086054E0A94945
:101C300078392068884201D104204AE0A5496439F6
:101C40002068884202D1402043E04CE0A14950394D
:101C50002068884201D100153BE09E493C3920684C
:101C6000884202D14FF4804033E09A4928392068F5
:101C7000884202D14FF480202BE096491439206825
:101C8000884202D14FF4800023E0924920688842C4
:101C900001D1C0041DE090492068884201D1042090
:101CA00017E08D4914312068884201D1402010E0AE
:101CB000894928312068884201D1001509E0864908
:101CC0003C312068884202D14FF4804001E04FF45B
:101CD0008020804980394860E06A002802D0204690
:101CE000E16A8847F4E094F84010022088402840D8
:101CF000002871D006F002000028FAD020680068A1
:101D000000F0200040B92068006820F00A00216837
:101D10000860012084F821006E492068884254D967
:101D20006C4978392068884201D1022049E069492C
:101D300064392068884201D1202042E06549503949
:101D40002068884201D140153BE062493C39206857
:101D5000884202D14FF4005033E05E4928392068B0
:101D6000884202D14FF400302BE05A4914392068E0
:101D7000884202D14FF4001023E05649206888427F
:101D800001D180041DE054492068884201D102201D
:101D900017E0514914312068884201D1202010E019
:101DA0004D4928312068884201D1401509E04A494F
:101DB0003C312068884202D14FF4005001E04FF4DA
:101DC00000304549091F086054E0424978392068CD
:101DD000884202D102204AE057E03E496439206837
:101DE000884201D1202042E03A4950392068884297
:101DF00001D140153BE037493C392068884202D187
:101E00004FF4005033E0334928392068884202D12A
:101E10004FF400302BE02F4914392068884202D15A
:101E20004FF4001023E02B492068884201D1800440
:101E30001DE029492068884201D1022017E0264987
:101E400014312068884201D1202010E02249283135
:101E50002068884201D1401509E01F493C312068C3
:101E6000884202D14FF4005001E04FF4003019498C
:101E70008039486000BF002084F8200000BFA06ABD
:101E800030B32046A16A884722E094F84010082029
:101E900088402840E0B106F00800C8B1206800681A
:101EA00020F00E002168086094F84010012088405E
:101EB000E16B48600120A06384F8210000BF00208E
:101EC00084F8200000BF206B10B12046216B8847AA
:101ED00070BD00008000024008040240014600225C
:101EE00009B9012070471E4B086898420BD21D4B60
:101EF0000868C01A1423B0FBF3F080000864194886
:101F00000838C8630AE0164B0868C01A1423B0FBEF
:101F1000F3F08000086412480838C863022081F892
:101F200021000868026843F6F0708243D1E901039A
:101F30001843CB6818430B6918434B6918438B69E6
:101F40001843CB6918430243086802600020886385
:101F5000012081F82100002081F8200000BFC1E7A6
:101F600008040240080002402DE9F04104460D46F5
:101F700016461F464FF0000800BF94F820000128C5
:101F800002D10220BDE8F081012084F8200000BFCA
:101F900094F8210001282CD1022084F8210000208F
:101FA000A0632068006820F00100216808603B46BB
:101FB00032462946204604F0C5FFE06A30B1206869
:101FC000006840F00E00216808600BE0206800689F
:101FD00020F00400216808602068006840F00A00D2
:101FE000216808602068006840F0010021680860EE
:101FF00006E000BF002084F8200000BF4FF0020878
:102000004046BFE770B5044600F0C8F906462546CD
:10201000681C10B104480078054400BF00F0BEF908
:10202000801BA842FAD370BD100000202DE9F847AC
:10203000024600239C467BE14FF0010808FA03F4B6
:10204000D1F8008008EA0400A0427DD1DFF8F4A2B4
:10205000D1F80480A8EB0A09D0453AD014DCB8F1D5
:10206000030F50D009DCB8F1000F31D0B8F1010FE7
:102070001CD0B8F1020F49D120E0B8F1110F18D0EF
:10208000B8F1120F42D11EE0B9F5881F25D006DC49
:10209000B9F5803F20D0B9F5801F37D11AE0B9F5E6
:1020A000001F18D0B9F5041F30D117E0D1F80CC0CB
:1020B0002DE0D1F80C8008F1040C28E0D1F80C8058
:1020C00008F1080C23E0D1F80C8008F10C0C1EE09C
:1020D00000BF00BF00BF00BF00BF00BFD1F8088035
:1020E000B8F1000F02D14FF0040C0BE0D1F80880DA
:1020F000B8F1010F03D14FF0080C146102E04FF06A
:10210000080C546103E04FF0000C00E000BF00BF7A
:10211000FF2801D8904601E002F104084646FF2856
:1021200002D84FEA830803E0A3F108084FEA8808C1
:102130004746D6F800804FF00F0909FA07F928EA58
:1021400009080CFA07F900E07AE048EA0908C6F83D
:102150000080D1F8048008F08058B8F1805F6FD11A
:1021600000BFDFF8E481D8F8188048F00108DFF8F4
:10217000D891C9F81880C846D8F8188008F0010826
:10218000CDF8008000BF00BF4FEAB9384FEA93098D
:1021900058F829504FEA83784FEA18794FF00F0822
:1021A00008FA09F825EA0805DFF8A081424502D1BE
:1021B0004FF0000824E0DFF89881424502D14FF04B
:1021C00001081DE0DFF88C81424502D14FF0020882
:1021D00016E0DFF88481424502D14FF003080FE09A
:1021E000DFF87881424502D14FF0040808E0DFF8BB
:1021F0007081424502D14FF0050801E04FF006081A
:102200004FEA83794FEA197908FA09F848EA05058F
:10221000DFF850814FEA930948F82950D1F804803B
:1022200008F48038B8F5803F0BD1DFF83C81D8F84E
:10223000008048EA0008DFF83091C9F800800AE021
:1022400075E0DFF82481D8F8008028EA0008DFF87C
:102250001891C9F80080D1F8048008F40038B8F566
:10226000003F0ED1DFF8008108F10408D8F80080A3
:1022700048EA0008DFF8F09009F10409C9F8008085
:102280000DE0DFF8E48008F10408D8F8008028EABF
:102290000008DFF8D49009F10409C9F80080D1F8EA
:1022A000048008F48018B8F5801F0ED1DFF8B880DC
:1022B00008F10808D8F8008048EA0008DFF8A8907C
:1022C00009F10809C9F800800DE0DFF89C8008F1E9
:1022D0000808D8F8008028EA0008DFF88C9009F197
:1022E0000809C9F80080D1F8048008F40018B8F58E
:1022F000001F0ED1DFF8708008F10C08D8F80080BC
:1023000048EA0008DFF8609009F10C09C9F800807C
:102310000DE0DFF8548008F10C08D8F8008028EAB6
:102320000008DFF8449009F10C09C9F800805B1C33
:10233000D1F8008028FA03F8B8F1000F7FF47CAEE2
:10234000BDE8F887000011100010024000080140AD
:10235000000C014000100140001401400018014031
:10236000001C01400800014000040140024693683F
:102370000B400BB1012000E00020704710B5C2688F
:1023800021EA020302EA010443EA0443036110BDA7
:102390000AB1016101E00B04036170470148006864
:1023A00070470000080000200348006803490978CE
:1023B0000844014908607047080000201000002010
:1023C00010B50848006840F0100006490860032076
:1023D00000F0ACF8002000F007F800F02BF8002027
:1023E00010BD00000020024070B504460E48007881
:1023F0004FF47A71B1FBF0F00C490968B1FBF0F5CC
:10240000284600F0B3FC08B1012070BD102C07D2A3
:1024100000222146501E00F04BF80548046001E000
:102420000120F2E70020F0E7100000201400002057
:102430000C00002008B500BF1348806940F001007F
:10244000114988610846806900F00100009000BFD2
:1024500000BF00BF0846C06940F08050C861084610
:10246000C06900F08050009000BF00BF052000F060
:102470005DF800BF0549486820F0E06040F000705A
:10248000486000BF08BD000000100240000001408D
:1024900001460846002809DB00F01F0301229A408C
:1024A00043099B0003F1E023C3F8002100BF7047FC
:1024B0002DE9F05F80460D461646002705F03CF8F2
:1024C000074639462A46334601F00700C0F1070A9D
:1024D000BAF1040F02D94FF0040A01E0C0F1070A73
:1024E000D14600F1040ABAF1070F02D24FF0000AF8
:1024F00001E0A0F1030AD4464FF0010A0AFA09FAF2
:10250000AAF1010A0AEA020A0AFA0CFA4FF0010BD0
:102510000BFA0CFBABF1010B0BEA030B4AEA0B04C1
:102520002146404604F0F4FFBDE8F09F00BF00F0F4
:102530000702064B19684FF6FF031940044B0B4383
:1025400043EA0221014B196000BF70470CED00E027
:102550000000FA0570B504460D460CB9012070BDA7
:102560005A48006800F00700A8420ED25748006899
:1025700020F007002843554908600846006800F02D
:102580000700A84201D00120E9E7207800F002000E
:1025900002281DD1207800F00400042805D14C4801
:1025A000406840F4E0604A494860207800F0080044
:1025B000082805D14648406840F4605044494860C6
:1025C0004348406820F0F000A16808434049486053
:1025D000207800F0010078B36068012806D13C48FB
:1025E000006800F4003090B90120B8E76068022864
:1025F00006D13748006800F0007040B90120AEE70E
:102600003348006800F0020008B90120A7E730480D
:10261000406820F00300616808432D494860FFF7D7
:10262000BDFE064609E0FFF7B9FE801B41F2883186
:10263000884202D9032092E707E02548406800F06D
:102640000C006168B0EB810FEDD12048006800F00C
:102650000700A8420ED91D48006820F00700284353
:102660001A4908600846006800F00700A84201D037
:10267000012074E7207800F00400042807D11448F2
:10268000406820F4E060E168084311494860207820
:1026900000F00800082808D10D48406820F4605078
:1026A000216940EAC1000A49486000F03FF8084942
:1026B0004968C1F30311074A515CC84006490860E4
:1026C00006480068FFF790FE002048E7002002401F
:1026D0000010024080AE0008140000200C00002012
:1026E00001480068704700001400002000B5FFF7A3
:1026F000F7FF04494968C1F30221034A515CC8400D
:1027000000BD00000010024090AE000800B5FFF7C9
:10271000E7FF04494968C1F3C221034A515CC8403C
:1027200000BD00000010024090AE0008F0B585B07A
:102730000FF26C0C9CE8E01001A8A0E8E0101CA5CA
:102740002D68009500210022002300240020194D4F
:10275000696801F00C05EDB1042D02D0082D1AD1E5
:1027600001E0154819E001ADC1F38346AC5D01F409
:10277000803555B10F4D6D68C5F340451DF80520F6
:102780000D4D6543B5FBF2F302E00C4D04FB05F380
:10279000184602E000BF084800BF00BF05B0F0BD0A
:1027A00002030405060708090A0B0C0D0E0F101092
:1027B000010200000010024000127A0000093D00F2
:1027C000F8B504460CB90120F8BD207800F00100EE
:1027D000002878D0F848406800F00C0004280CD09D
:1027E000F548406800F00C00082811D1F248406814
:1027F00000F48030B0F5803F0AD1EF48006800F463
:10280000003000285FD0606800285CD10120DBE741
:1028100000BF6068B0F5803F06D1E748006840F42B
:102820008030E549086028E0606858B9E2480068EF
:1028300020F48030E04908600846006820F48020D9
:1028400008601AE06068B0F5A02F0BD1DA48006884
:1028500040F48020D84908600846006840F4803081
:1028600008600AE0D448006820F48030D24908604B
:102870000846006820F48020086000BF606888B1C6
:10288000FFF78CFD054606E0FFF788FD401B642836
:1028900001D9032098E7C848006800F400300028F8
:1028A000F2D010E0FFF77AFD054606E0FFF776FD6F
:1028B000401B642801D9032086E7BF48006800F464
:1028C00000300028F2D1207800F00200022857D111
:1028D000B948406800F00C0050B1B748406800F0BB
:1028E0000C00082818D1B448406800F4803098B92A
:1028F000B148006800F0020020B12069012801D031
:10290000012061E7AC48006820F0F800616940EA06
:10291000C100A949086033E02069E8B10120A74956
:102920000860FFF73BFD054606E0FFF737FD401B5B
:10293000022801D9032047E79F48006800F0020001
:102940000028F2D09C48006820F0F800616940EA55
:10295000C1009949086013E0002098490860FFF71A
:102960001DFD054606E0FFF719FD401B022801D9B1
:10297000032029E79048006800F002000028F2D107
:10298000207800F0080008282DD1A069B8B10120F6
:102990008B490860FFF702FD054606E0FFF7FEFCE5
:1029A000401B022801D903200EE78348406A00F04B
:1029B00002000028F2D0012004F0DAFA13E000202F
:1029C0007F490860FFF7EAFC054606E0FFF7E6FCF2
:1029D000401B022801D90320F6E67748406A00F040
:1029E00002000028F2D1207800F00400042873D1FE
:1029F00000277148C06900F0805070B900BF6E4870
:102A0000C06940F080506C49C8610846C06900F058
:102A10008050009000BF00BF01276A48006800F4A2
:102A20008070B0B96748006840F4807065490860FC
:102A3000FFF7B4FC054606E0FFF7B0FC401B642836
:102A400001D90320C0E65F48006800F480700028C8
:102A5000F2D000BFE068012806D15748006A40F074
:102A600001005549086227E0E06858B95248006AF9
:102A700020F00100504908620846006A20F0040076
:102A8000086219E0E06805280BD14B48006A40F065
:102A90000400494908620846006A40F001000862E3
:102AA0000AE04548006A20F00100434908620846F0
:102AB000006A20F00400086200BFE068A0B1FFF7E0
:102AC0006DFC054609E0FFF769FC401B41F28831C7
:102AD000884202D9032077E622E03748006A00F0F6
:102AE00002000028EFD012E0FFF758FC054608E08E
:102AF000FFF754FC401B41F28831884201D9032082
:102B000062E62D48006A00F002000028F0D1012F93
:102B100005D12948C06920F080502749C86100BF0D
:102B2000E069C8B32448406800F00C00082860D071
:102B3000E069022848D1002020490866FFF72EFCF2
:102B4000054606E0FFF72AFC401B022801D90320B6
:102B50003AE61948006800F000700028F2D1206AB7
:102B6000B0F5803F07D11448406820F40030A168D8
:102B7000084311494860D4E9080108430E494968EF
:102B800021F4741108430C49486001200B49086680
:102B9000FFF704FC054607E03DE0FFF7FFFB401BA5
:102BA000022801D903200FE60348006800F00070F6
:102BB0000028F2D02FE00000001002400000424246
:102BC0008004424200700040002014490866FFF76C
:102BD000E5FB054606E0FFF7E1FB401B022801D9B3
:102BE0000320F1E50E48006800F000700028F2D1E3
:102BF00011E0E069012800D1E6E50948466806F4DD
:102C00008031206A814204D106F47011606A8142E9
:102C100001D00120D8E50020D6E5000000004242A6
:102C20000010024010B504460CB9012010BD606AC6
:102C300038B96068B0F5827F00D105E00021E1611C
:102C400002E00021216161610021A16294F851003C
:102C500028B9002084F85000204600F043F80220F4
:102C600084F851002068006820F040002168086066
:102C7000A08800F48270218901F404410843A189ED
:102C800001F400610843217C01F002010843217D29
:102C900001F001010843218B01F400710843217FF9
:102CA00001F0380108432021095D01F0800108434B
:102CB000218D01F400510843216808600421A069B6
:102CC00001EA1040216848602068C06920F4006073
:102CD0002168C86100206065012084F8510000204F
:102CE000A4E7000010B586B00446002002900390CF
:102CF000049005901A49206888422FD100BF1948D6
:102D0000C06940F480401749C8610846C06900F4B2
:102D10008040019000BF00BF00BF0846806940F0BE
:102D2000080088610846806900F00800019000BF33
:102D300000BF4FF420400290022003900320059032
:102D400002A90948FFF772F94FF480400290002071
:102D50000390049002A90448FFF768F906B010BD7B
:102D60000038004000100240000C014070B50446DD
:102D70002546681EB0F1807F01D301200FE0681E58
:102D80004FF0E02148610F214FF0FF3004F0C0FB0D
:102D900000204FF0E021886107200861002070BD0D
:102DA0007047704710B50346002200BF93F83C00FF
:102DB000012801D1022010BD012083F83C0000BF92
:102DC00022F0FF00CC6840EA040222F440708C68D4
:102DD00040EA040222F480604C6840EA040222F4D3
:102DE00000600C6840EA040222F480500C6940EA5A
:102DF000040222F400504C6940EA040222F48040AC
:102E0000CC6940EA04021868426400BF002083F8DD
:102E10003C0000BF00BFCEE730B502460B4600BF06
:102E200092F83C00012801D1022030BD012082F837
:102E30003C0000BF022082F83D0010684468106822
:102E4000816824F070041868044310684460144DCD
:102E50001068A84213D0134D1068A8420FD0106814
:102E6000B0F1804F0BD0104D1068A84207D00F4D25
:102E70001068A84203D00E4D1068A84205D121F079
:102E800080015868014310688160012082F83D008C
:102E900000BF002082F83C0000BF00BFC5E7000073
:102EA000002C0140003401400004004000080040B4
:102EB000000C004010B504460CB9012010BD94F878
:102EC0003D0028B9002084F83C00204600F026F898
:102ED000022084F83D00211D206802F075F90120D0
:102EE00084F8460000BF84F83E0001213F200155D0
:102EF000402001554120015500BF00BF012084F84A
:102F0000420043200155442001554520015500BF92
:102F1000012084F83D000020D0E7000038B50446C9
:102F20002068B0F1804F0DD100BF2F48C06940F03C
:102F300001002D49C8610846C06900F001000090F9
:102F400000BF50E02949206888420DD100BF2648C3
:102F5000C06940F002002449C8610846C06900F019
:102F60000200009000BF3EE02149206888420DD158
:102F700000BF1D48C06940F004001B49C8610846F5
:102F8000C06900F00400009000BF2CE019492068DF
:102F9000884216D100BF1448C06940F010001249A1
:102FA000C8610846C06900F01000009000BF00BF73
:102FB000022211463620FFF77BFA3620FFF768FA27
:102FC00011E00D49206888420DD100BF0648806994
:102FD00040F40050044988610846806900F40050BC
:102FE000009000BF00BF38BD001002400004004048
:102FF000000800400010004000340140014691F8F4
:103000003D00012801D001207047022081F83D00D9
:103010000868C06840F001000B68D860164B08686B
:10302000984213D0154B086898420FD00868B0F149
:10303000804F0BD0124B0868984207D0114B08689C
:10304000984203D0104B086898420CD108688068F9
:1030500000F00702062A0CD00868006840F0010062
:103060000B68186005E00868006840F001000B6814
:1030700018600020C8E70000002C01400034014027
:103080000004004000080040000C00402DE9F04121
:1030900004460D4600BF94F83C00012802D10220EE
:1030A000BDE8F081012084F83C0000BF022084F8D4
:1030B0003D002068866826F0770626F47F46206863
:1030C00086602868502833D00CDC202850D004DCDF
:1030D00000284BD0102851D149E0302849D0402851
:1030E0004CD139E060282DD0702807D0B0F5805F32
:1030F00003D0B0F5005F41D10DE040E0D5E9021307
:103100006A68206802F0BFF82068866846F0770693
:103110002068866033E0D5E902136A68206802F00F
:10312000B2F82068806840F480402168886026E01A
:10313000EA686968206803F0D6FF5021206803F030
:10314000C9FF1CE0EA686968206803F0DFFF6021BE
:10315000206803F0BFFF12E0EA686968206803F0A6
:10316000C2FF4021206803F0B5FF08E000BF00BFA8
:1031700000BF2968206803F0ADFF00E000BF00BF7A
:10318000012084F83D0000BF002084F83C0000BF0F
:1031900000BF85E7704710B5044620680069C0F39A
:1031A0004000D8B12068C068C0F34000B0B16FF0F3
:1031B000020021680861012020772068806900F002
:1031C000030018B12046FFF7E5FF05E0204600F0B8
:1031D0004DF9204600F0FDF90020207720680069B5
:1031E000C0F38000D8B12068C068C0F38000B0B1DF
:1031F0006FF0040021680861022020772068806950
:1032000000F4407018B12046FFF7C4FF05E02046E7
:1032100000F02CF9204600F0DCF90020207720682F
:103220000069C0F3C000D8B12068C068C0F3C00016
:10323000B0B16FF008002168086104202077206891
:10324000C06900F0030018B12046FFF7A3FF05E0B6
:10325000204600F00BF9204600F0BBF90020207753
:1032600020680069C0F30010D8B12068C068C0F3BE
:103270000010B0B16FF010002168086108202077BD
:103280002068C06900F4407018B12046FFF782FF43
:1032900005E0204600F0EAF8204600F09AF9002008
:1032A00020772068006900F0010058B12068C068EC
:1032B00000F0010030B16FF0010021680861204684
:1032C00000F002FA20680069C0F3C01058B120680D
:1032D000C068C0F3C01030B16FF080002168086191
:1032E0002046FFF75DFD20680069C0F3801058B1EB
:1032F0002068C068C0F3801030B16FF040002168D2
:103300000861204600F012FB20680069C0F34010FD
:1033100058B12068C068C0F3401030B16FF0200091
:10332000216808612046FFF73CFD10BD10B586B04E
:103330000446002002900390049005902068B0F1AC
:10334000804F17D100BF4248806940F004004049D7
:1033500088610846806900F00400019000BF00BF4A
:103360000320029002200390059002A93948FEF73D
:103370005DFE6AE03849206888422DD100BF34489C
:10338000806940F00400324988610846806900F095
:103390000400019000BF00BF00BF0846806940F0F4
:1033A000080088610846806900F00800019000BFAD
:1033B00000BFC020029002200390059002A925487A
:1033C000FEF734FE0320029002200390059002A92C
:1033D0002248FEF72BFE38E021492068884218D1A8
:1033E00000BF1B48806940F0080019498861084601
:1033F000806900F00800019000BF00BF4FF47070BA
:10340000029002200390059002A91448FEF70EFED8
:103410001BE014492068884217D100BF0C4880691E
:1034200040F010000A4988610846806900F01000E9
:10343000019000BF00BF4FF4707002900220039013
:10344000059002A90848FEF7F1FD06B010BD000086
:10345000001002400008014000040040000C014040
:10346000000800400034014000100140704770B572
:1034700004460D46164600BF94F83C00012801D1D1
:10348000022070BD012084F83C0000BF36B1042E3C
:103490001BD0082E31D00C2E5ED145E02946206885
:1034A00003F07AFD2068806940F008002168886197
:1034B0002068806920F004002168886120688069A4
:1034C000296908432168886147E02946206801F09E
:1034D000E5FE2068806940F400602168886120680A
:1034E000806920F48060216888612068806929698A
:1034F00040EA0120216888612FE02946206803F016
:1035000083FD2068C06940F008002168C861206818
:10351000C06920F004002168C8612068C069296979
:1035200008432168C86118E02946206803F0A8FD17
:103530002068C06940F400602168C8612068C069E3
:1035400020F480602168C8612068C069296940EA68
:1035500001202168C86100E000BF00BF00BF00205B
:1035600084F83C0000BF00BF8BE710B504460CB9DF
:10357000012010BD94F83D0028B9002084F83C00DB
:10358000204600F025F8022084F83D00211D206827
:1035900001F01AFE012084F8460000BF84F83E00C6
:1035A00001213F200155402001554120015500BF18
:1035B00000BF012084F842004320015544200155FA
:1035C0004520015500BF012084F83D000020D0E7D0
:1035D0007047704770B504460D4615B994F83E0023
:1035E0000BE0042D02D13F20005D06E0082D02D142
:1035F0004020005D01E04120005D012801D0012054
:1036000070BD1DB9022084F83E000EE0042D03D1E8
:1036100002213F20015508E0082D03D1022140205E
:10362000015502E00221412001550122294620686E
:1036300001F018FE1F492068884203D01E49206807
:10364000884201D1012000E0002028B12068406CB0
:1036500040F400402168486416492068884213D02D
:103660001549206888420FD02068B0F1804F0BD0F8
:1036700012492068884207D011492068884203D047
:103680001049206888420CD12068806800F0070645
:10369000062E0CD02068006840F001002168086008
:1036A00005E02068006840F0010021680860002003
:1036B000A6E70000002C0140003401400004004057
:1036C00000080040000C00402DE9F047D6B0044649
:1036D0007749206888427DD1C82124A8FCF755FF8E
:1036E0007448006806F066FF054673480CC8284613
:1036F00006F05EFA074606F029FA6E4908606F4840
:103700000068401C0A2190FBF1F201FB12006B499A
:1037100008606B4A6B496C4800F08AFC6548006899
:1037200006F048FF05460022684B06F0DDFC03D298
:10373000674801F087FE0CE05E48006806F03AFF3B
:1037400005460022634B06F0CFFC02D2624801F02E
:1037500079FE5848006806F02DFF054600225D4BB3
:1037600006F0FCFD0AD25D480068012806D1002061
:103770005A4908605A49534801F024F94D480068F5
:1037800006F018FF05460022564B06F0E7FD7DD2F5
:10379000202255491CA8FCF7C6FE202114A8FCF7DE
:1037A000F4FE5249474801F009FA5049086806F00A
:1037B00001FF4F4A03C24D49486806F0FBFE4C4AE0
:1037C000C2E902014949886806F0F4FE0546494A03
:1037D000494B00E068E006F003FE454AC2E90401F7
:1037E0004249C86806F0E6FE0546444A444B06F0E6
:1037F000F7FD3F4AC2E9060130480068002842D17F
:103800003A49C86806F0D6FE07464FF066323D4B8F
:1038100006F0A6FC05460E463449886806F0CAFE46
:1038200007464FF06632374B06F09AFC81468A46CF
:103830002E49486806F0BEFE07464FF06632314B0F
:1038400006F08EFCCDE912012849086806F0B2FEA8
:1038500007464FF066322B4B06F082FCCDE9029A08
:10386000CDE90456CDE91001DDE91201CDE90001F1
:1038700025A124A8DDE91023FCF756FDC82224A9C0
:10388000274800F015FB5022264900E00BE068466F
:10389000FCF749FE234810380FC801F0E9FD224823
:1038A00005F0B6FA00BF00BF56B0BDE8F0870000D3
:1038B00000100040E80200207002002000000020FC
:1038C00008090020180E002080020020000010408F
:1038D00018010020000014403008002004000020DF
:1038E000EC0200200000164060AE0008E813002043
:1038F000F8130020A7E8482EFF21F93F7DAEB662FD
:103900007FD9124066A64C400D0A252E3066092547
:103910002E306609252E306609252E3066000000FF
:10392000BC060020B8010020E40200207047704768
:10393000704700002DE9F84F0446206805682068AC
:10394000C668206847694FF00009CA4605F00F09AC
:10395000B9F1000F0AD105F0200038B106F02000BF
:1039600020B1204603F08CFCBDE8F88FB9F1000FC0
:1039700071D007F0010018B906F4907000286AD0E1
:1039800005F0010030B106F4807018B1206C40F0F1
:103990000100206405F0040030B107F0010018B107
:1039A000206C40F00200206405F0020030B107F006
:1039B000010018B1206C40F00400206405F00800FC
:1039C00048B106F0200010B907F0010018B1206CD2
:1039D00040F008002064206C68B305F0200028B196
:1039E00006F0200010B1204603F04AFC2068406930
:1039F000C0F3801A206C00F0080010B9BAF1000F73
:103A000022D0204603F0F5FC2068406900F0400019
:103A1000B0B12068406920F0400021684861A06B87
:103A200050B15648A16B4863A06BFDF7B7FF10B1CA
:103A3000A06B416B88470CE02046FFF779FF08E058
:103A40002046FFF775FF04E02046FFF771FF0020D6
:103A5000206489E7FFE7206B012878D105F010008A
:103A6000002874D006F01000002870D000BF00209D
:103A7000009020680068009020684068009000BFB7
:103A800000BF2068406900F04000C0B3A06B006830
:103A900040681FFA80F8B8F1000F2FD0A08D404584
:103AA0002CDDA4F82E80A06B806920281FD0206810
:103AB000C06820F480702168C8602068406920F0E8
:103AC0000100216848612068406920F040002168B9
:103AD0004861202084F83E00002020632068C068F0
:103AE00020F010002168C860A06BFDF72BFFA08DAF
:103AF000E28D801A81B22046FFF719FF34E7FFE715
:103B0000A08DE18D401A1FFA80F8E08DE8B1B8F180
:103B1000000F1AD02068C06820F490702168C86037
:103B20002068406920F0010021684861202084F865
:103B30003E00002020632068C06820F0100021684B
:103B4000C86041462046FFF7F2FE0DE7FFE705F0AB
:103B5000800030B106F0800018B1204603F002FC6E
:103B600002E705F0400030B106F0400018B12046F1
:103B700003F098FCF8E600BFF6E60000C574000804
:103B800010B504460CB9012010BDA06900B100E0D9
:103B900000BF94F83D0028B9002084F83C0020467E
:103BA00000F028F8242084F83D002068C06820F444
:103BB00000502168C860204603F0E4FA20680069DC
:103BC00020F49040216808612068406920F02A00B4
:103BD000216848612068C06840F400502168C860CE
:103BE00000202064202084F83D0084F83E0000205E
:103BF000CAE7000010B586B004460020029003908A
:103C0000049005907149206888426FD100BF7048C8
:103C1000806940F480406E4988610846806900F4FC
:103C20008040019000BF00BF00BF0846806940F09F
:103C3000040088610846806900F00400019000BF1C
:103C400000BF48150290022003900320059002A9AE
:103C50006048FEF7EBF94FF480600290002003907B
:103C6000049002A95B48FEF7E1F95B485B490860F4
:103C7000002048600021594881608021C1600021F6
:103C800001614161202181610902C161FEF726F9CC
:103C900008B1FDF702FE00BF5048A063446200BFB8
:103CA0004D4814384E4908601020486000214C48A7
:103CB00081608021C16000210161416181614FF417
:103CC0000051C161FEF70AF908B1FDF7E6FD00BF3A
:103CD00043486063446200BF032202212520FEF7AF
:103CE000E7FB2520FEF7D4FB6EE0FFE73D492068A7
:103CF000884269D100BF3648C06940F40030344979
:103D0000C8610846C06900F40030019000BF00BFE0
:103D100000BF0846806940F0040088610846806959
:103D200000F00400019000BF00BF042002900220B8
:103D300003900320059002A92648FEF777F9082092
:103D4000029000200390049002A92248FEF76EF929
:103D5000214814302449086000204860002122488E
:103D600081608021C1600021016141618161C16187
:103D7000FEF7B4F808B1FDF790FD00BF1A48A06344
:103D8000446200BF14482830184908601020486079
:103D90000021164881608021C160002101614161DC
:103DA0008161C161FEF79AF808B1FDF776FD00BFA9
:103DB0000E486063446200BF032202212620FEF702
:103DC00077FB2620FEF764FB06B010BD00380140EB
:103DD0000010024000080140580002400007002087
:103DE000440700200044004088070020CC07002042
:103DF00070B504460D46164694F83E00202816D1AC
:103E000005B10EB9012070BD00BF94F83C00012837
:103E100001D10220F7E7012084F83C0000BF002018
:103E2000206332462946204601F076FAEBE702206D
:103E3000E9E770B504460D46164694F83E00202882
:103E400016D105B10EB9012070BD00BF94F83C0039
:103E5000012801D10220F7E7012084F83C0000BFCF
:103E60000020206332462946204601F0A1FAEBE704
:103E70000220E9E710B504460848844201D101F068
:103E8000CBFA0748844208D10648007806490870F2
:103E9000012204492046FFF7CCFF10BD7806002020
:103EA000BC060020E8100020E4020020704700005B
:103EB000F7B50446154694F83D0020283DD10198F9
:103EC00000B10DB90120FEBD00BF94F83C000128EF
:103ED00001D10220F7E7012084F83C0000BF0198DF
:103EE0002062A584E58400202064212084F83D0020
:103EF0001348616B88621348616BC8621248616B3A
:103F000008630020616B486301AE23681A1D3168A5
:103F10002B46606BFEF728F86FF0400021680860C0
:103F200000BF002084F83C0000BF2068406940F0DA
:103F30008000216848610020C5E70220C3E7000037
:103F4000D9740008E57300083571000810B50446FF
:103F50000248844201D101F069FA10BD78060020C0
:103F6000704700BFFEE70000002100BF07E04FF0F0
:103F70007E52C1EB011300EBC3035A62491C0429B2
:103F8000F5DB4FF07E52426200238362C36203631B
:103F9000254B9C2213500023A0221350A42213501F
:103FA000224BA8221350204B4FF48A721350002347
:103FB000121D1350121D13501C4B121D13504FF0A5
:103FC0007E534FF4C67213500023121D1350121D5E
:103FD0001350121D13504FF07E5242638363C3632C
:103FE00003641346AC2213500023B0221350B422B2
:103FF0001350B82213504FF07E534FF49272135067
:104000000023121D1350121D1350121D13504FF098
:104010007E534FF4CE7213500023121D1350121D05
:104020001350121D13507047F704353FF70435BF86
:104030002DE9F04105460E461746002427E0032CE3
:104040000AD1C4EB041006EBC00205EBC403D3E9AC
:10405000000104F013FE09E0C4EB041006EBC002FB
:1040600005EBC403D3E9000104F000FE04EBC40037
:1040700000EB400007EBC003C4EB041006EBC002EA
:1040800005EBC40CDCE9000100F006F8641C042C0C
:10409000D5DBBDE8F08100002DE9F04FB7B0144644
:1040A0009946606906F086FA07461D4A1D4B06F0E0
:1040B00057F805460E46206A06F07CFA07461A4A6B
:1040C0001A4B06F04DF882462A46334605F070FD3D
:1040D000CDE9320105F03AFD2062A169E06806F001
:1040E000A7FD3490E169206906F0A2FD3590216AB0
:1040F000606906F09DFD36904A46214634A800F0DE
:1041000017F8C82209F1100168463294FCF70BFA3F
:1041100099E80F0001F094FB37B0BDE8F08F000084
:1041200000401CEBE2361A3F1EA7E8482EFFEF3F87
:1041300070B505460E461446286820626968A16479
:10414000A96821672046FDF737FB04F12800FDF739
:1041500033FB04F15000FDF72FFB90203168015133
:10416000B02071680151D020B168015104F178008C
:10417000FDF7E6FA04F19800FDF7E2FA04F1B80061
:10418000FDF7DEFA70BD000008B500BF16484069B3
:1041900040F00100144948610846406900F0010000
:1041A000009000BF00BF022203210E20FEF780F91D
:1041B0000E20FEF76DF9022203210F20FEF778F999
:1041C0000F20FEF765F9022203211020FEF770F997
:1041D0001020FEF75DF9022203211120FEF768F995
:1041E0001120FEF755F908BD0010024000B585B05A
:1041F0000020019002900390049000BF4D48806918
:1042000040F020004B4988610846806900F020009A
:10421000009000BF00BF00BF0846806940F0040066
:1042200088610846806900F00400009000BF00BF6C
:1042300000BF0846806940F0080088610846806930
:1042400000F00800009000BF00BF00BF0846806972
:1042500040F0100088610846806900F0100000906E
:1042600000BF00BF01224FF401413348FEF790F830
:1042700001224FF4A0513148FEF78AF801220421AF
:104280002F48FEF785F8012218212E48FEF780F806
:104290004FF401400190012002900390022004900D
:1042A00001A92548FDF7C2FE4FF48060019001206E
:1042B000029003900220049001A92048FDF7B6FE69
:1042C0004FF48050019001200290002003900220C2
:1042D000049001A91948FDF7A9FE042001900120CE
:1042E000029003900220049001A91548FDF79EFE5C
:1042F00008200190012002900020039002200490E9
:1043000001A91048FDF792FE1020019001200290B3
:1043100003900220049001A90A48FDF787FE20209F
:10432000019000200290039001A90648FDF77EFE4F
:1043300005B000BD0010024000080140001001401F
:1043400000140140000C014010B50F480F490860EF
:104350004FF48270486000210C488160C1600221E6
:10436000016101214161490281611021C161002186
:104370000162416281620A21C162FEF753FC08B109
:10438000FDF78BFA10BD0000003800402803002024
:1043900000B58DB0002009900A900B900C9007900A
:1043A00008901C216846FCF7F0F84FF08040234944
:1043B00008604720486000212048816041F2873131
:1043C000C160002101618161FEF774FD08B1FDF754
:1043D00064FA4FF48050099009A91848FEF756FE78
:1043E00008B1FDF75AFA1548FFF7BFF808B1FDF715
:1043F00054FA00200790089007A91048FEF70CFD1A
:1044000008B1FDF74AFA6020009000200190029068
:104410000490002269460948FFF729F808B1FDF722
:104420003CFA042269460548FFF721F808B1FDF778
:1044300034FA0248FEF77AFF0DB000BD8003002079
:1044400000B58DB0002009900A900B900C90079059
:1044500008901C216846FCF798F82C482C49086005
:104460004720486000212A48816041F28731C160BD
:10447000002101618161FEF71DFD08B1FDF70DFA14
:104480004FF48050099009A92148FEF7FFFD08B1BB
:10449000FDF703FA1E48FFF768F808B1FDF7FDF9CC
:1044A00000200790089007A91948FEF7B5FC08B14D
:1044B000FDF7F3F960200090002001900290049035
:1044C000002269461248FEF7D2FF08B1FDF7E5F970
:1044D000042269460E48FEF7CAFF08B1FDF7DDF970
:1044E000082269460A48FEF7C2FF08B1FDF7D5F970
:1044F0000C2269460648FEF7BAFF08B1FDF7CDF970
:104500000348FEF713FF0DB000BD0000000400409B
:10451000C803002000B58DB0002009900A900B90D0
:104520000C90079008901C216846FCF72EF82C4848
:104530002C4908604720486000212A48816041F2E8
:104540008731C160002101618161FEF7B3FC08B1D0
:10455000FDF7A3F94FF48050099009A92148FEF70F
:1045600095FD08B1FDF799F91E48FEF7FEFF08B169
:10457000FDF793F900200790089007A91948FEF766
:104580004BFC08B1FDF789F96020009000200190F4
:1045900002900490002269461248FEF768FF08B1B5
:1045A000FDF77BF9042269460E48FEF760FF08B16B
:1045B000FDF773F9082269460A48FEF758FF08B16B
:1045C000FDF76BF90C2269460648FEF750FF08B16B
:1045D000FDF763F90348FEF7A9FE0DB000BD00002A
:1045E00000080040100400201CB50020009001903D
:1045F0000E480F4908604720486000210C48816040
:1046000041F28731C16000218161FEF753FC08B19E
:10461000FDF743F900200090019069460448FEF739
:10462000FBFB08B1FDF739F91CBD0000001000408C
:104630005804002000B595B00020119012901390FE
:1046400014900F9010901C2108A8FBF79EFF2021CA
:104650006846FBF79AFF37483749086047204860AB
:1046600000213548816041F28731C160002101613C
:1046700041618161FEF71EFC08B1FDF70EF94FF4B0
:104680008050119011A92C48FEF700FD08B1FDF7EC
:1046900004F92948FEF769FF08B1FDF7FEF800208C
:1046A0000F9010900FA92448FEF7B6FB08B1FDF754
:1046B000F4F860200890002009900A900B900C906C
:1046C0000D900E90002208A91B48FEF7D0FE08B1FD
:1046D000FDF7E3F8042208A91748FEF7C8FE08B161
:1046E000FDF7DBF8082208A91348FEF7C0FE08B161
:1046F000FDF7D3F80C2208A90F48FEF7B8FE08B161
:10470000FDF7CBF8002000900190029003900490F8
:104710004FF4005005900020079069460648FEF7C8
:1047200041FB08B1FDF7B9F80348FEF7FFFD15B0EE
:1047300000BD000000340140A004002010B50B486B
:104740000B4908604FF4E13048600021084881605F
:10475000C16001610C21416100218161C161FFF7EC
:104760000FFA08B1FDF799F810BD000000380140BC
:104770007806002010B50B480B4908604FF4E13073
:104780004860002108488160C16001610C214161DD
:1047900000218161C161FFF7F3F908B1FDF77DF8F0
:1047A00010BD000000440040BC06002000BFFEE732
:1047B0002DE9FF47824614461D4633480CC8204663
:1047C000294605F0CBFD01D22F4830C82E49D1E94A
:1047D000006181F0004122462B46304605F0BEFDC7
:1047E00004D22948D0E9004080F000450022134659
:1047F0002046294605F0B2FD20D82448006805F07F
:1048000048FC8046894620480CC82046294605F0C9
:104810008BFA42464B46CDE9020105F0A1FC064663
:1048200005F00AFC80B21A4951F83A1008600020DD
:10483000174901EBCA014968086022E000201449C9
:1048400051F83A1008601148006805F022FC8046D3
:10485000894685F0004126460B480CC8304605F0D5
:1048600063FA42464B46CDE9000105F079FCCDE9FB
:10487000020105F0E1FB80B2054901EBCA0149687C
:10488000086004B0BDE8F087880000209000002098
:104890009400002000BFFEE72DE9F04F95B00546DB
:1048A000884614464FF0020959E0A9F102003D493B
:1048B00001EBC000D0E90063A9F1020004EBC000E5
:1048C0003246D0E900A1504605F08AFDCDE90A0143
:1048D0003548006805F06EFECDE90801DDE90A23E0
:1048E00005F03EFCCDE90C0130480CC80C9805F0F1
:1048F0001BFACDE91001A9F1020004EBC000D0E9D8
:104900000063A9F1020005EBC001D1E900A1324624
:10491000504605F065FDCDE90C012548006805F01D
:1049200049FECDE90A01DDE90C2305F019FCCDE9CA
:104930000E01DDE9102305F053FDCDE91201A9F1C7
:10494000020008EBC000D0E900633246129805F07F
:104950002FF9184A02EBC90203C209F10109B9F1A2
:10496000060FA2DB1349D1E90461134A134B304609
:1049700005F0BAFB03D200210E4A116151612022D9
:1049800021460848FBF7CFFD50220A4910316846FE
:10499000FBF7C9FD07480FC800F06AFD15B0BDE878
:1049A000F08F0000100800201C0000207002002082
:1049B00018000020280000209A9999999999C93FD8
:1049C000704700002DE9F04F93B082460C4603AAD1
:1049D0000021206800F0DEFE07AAD4E9000100F003
:1049E000D9FED4E9010105F011FE029005F0E2FDC7
:1049F0000746214A214B05F0F3FC054605F0A6F8D1
:104A000083460BAA5946206800F0C4FED4E9010190
:104A100005F0FCFD0190E16805F0F8FD834605F026
:104A2000C9FD0746144A164B05F0DAFC054605F0A9
:104A30008DF802900FAA2068029900F0ABFE4FF0AB
:104A4000000912E0C9EB09130AEBC30303F13402B6
:104A5000C9EB09130AEBC30303F1240103AB03EB16
:104A6000091001F007FD09F10109B9F1040FE9DBB3
:104A700013B0BDE8F08F00006E861BF0F9210940ED
:104A8000F92119402DE9F04105468846002400BF70
:104A90000CE005EBC4000022074BD0E90061304672
:104AA00005F05EFB08EBC40203C2641C062CF0DBBD
:104AB0000020BDE8F08100000000F03F2DE9FF5F1D
:104AC00081468A460024A34600210D460E4600BFBB
:104AD0000DE009EBC401D1E9007121F000412A4643
:104AE0003346384605F064F805460E46641C032C30
:104AF000EFDB2F480CC800202E4905F031FB07469C
:104B00002A46334605F0F0FA1CD2002418E009EBDF
:104B1000C401D1E900712A463346384605F004F94C
:104B200009EBC40203C209EBC401D1E900712048BA
:104B30000CC8384605F014FB09EBC40203C2641C20
:104B4000032CE4DB002004462CE000210AEBC40225
:104B5000116051608B4620E0174800EB4B1000EBD2
:104B6000C40003C8CDE9000109EBCB00D0E900780F
:104B70000B4638464146009A05F0F2FACDE90201AB
:104B80000AEBC400D0E900733A46029805F010F829
:104B90000AEBC40203C20BF1010BBBF1030FDBDB19
:104BA000601C0446042CD0DB04B0BDE8F09F00007C
:104BB000680200200000F03F0802002013B5ADF5A8
:104BC0000A7DFE4A07CA85AB07C3FC4A0C3207CAF6
:104BD00082AB07C3F94A183207CA7FAB07C300206C
:104BE00088901BE06FA9889801EB00100F908898BF
:104BF000C0EB00118A9800EBC10034300E90889809
:104C0000C0EB00118A9800EBC10024300D90DDE963
:104C10000E1204F039FB8898401C8890889804286C
:104C2000E0DB6CAA85A96FA801F05AFB69AA85A9E7
:104C300073A801F055FB66AA85A977A801F050FB7F
:104C400063AA85A97BA801F04BFB63980D90DC4813
:104C5000C0680C900D9905F05BFE0F9066980B9064
:104C6000D74880680A900B9905F052FE0D9069981C
:104C70000990D34840680890099905F049FE0B90C7
:104C80006C980990CE4800680890099905F040FE9C
:104C90000A900B9905F0BAFC0C900D9905F0B6FC42
:104CA0000E900F9905F0B2FC609064980D90C44886
:104CB000C0680C900D9905F02BFE0F9067980B9033
:104CC000BF4880680A900B9905F022FE0D906A9803
:104CD0000990BB4840680890099905F019FE0B90AF
:104CE0006D980990B64800680890099905F010FE83
:104CF0000A900B9905F08AFC0C900D9905F086FC42
:104D00000E900F9905F082FC619065980D90AC486B
:104D1000C0680C900D9905F0FBFD0F9068980B9002
:104D2000A74880680A900B9905F0F2FD0D906B98EA
:104D30000990A34840680890099905F0E9FD0B9097
:104D40006E9809909E4800680890099905F0E0FD6A
:104D50000A900B9905F05AFC0C900D9905F056FC41
:104D60000E900F9905F052FC629054AA60A96CA8AD
:104D700001F0D9FA57AA60A969A801F0D4FA5AAA91
:104D800060A966A801F0CFFA5DAA60A963A801F046
:104D9000CAFA60A96CA801F0F7FA509060A969A856
:104DA00001F0F2FA519060A966A801F0EDFA529074
:104DB00060A963A801F0E8FA5390002088902CE1E4
:104DC000889800EB400054A901EB800080680C90AB
:104DD000889800EB400001EB800080680B900C99F4
:104DE00005F096FD0E90889800EB400054A901EB69
:104DF000800040680A90889800EB400001EB80003A
:104E0000406809900A9905F083FD0C90889800EBA2
:104E1000400054A951F820000A90889800EB400007
:104E200051F8200009900A9905F072FD0B900C9939
:104E300005F0ECFB0D900E9905F0E8FB0F9003F0E8
:104E4000A2F83F903F9805F0B5FB5E4A5E4BCDE976
:104E50000E0105F049F914D84FF07E5140AA889808
:104E600002EB001001600021889802EB0010416005
:104E7000889802EB00108160889802EB0010C160F6
:104E8000C8E050A9889851F82000099005F092FBDD
:104E900000224E4BCDE90A0105F062F9CDE90C0183
:104EA00003F096FECDE90E0104F050FE40AA889969
:104EB00002EB011108603F9805F07CFBCDE90C0185
:104EC000889800EB400054A951F82000059005F0A7
:104ED00071FBCDE9080150A9889851F82000019094
:104EE00005F068FB0022394BCDE9020105F038F9E5
:104EF000CDE9040104F062F9CDE90601DDE90823FA
:104F000005F02EF9CDE90A01DDE90C2304F00CFFD0
:104F1000CDE90E0104F01AFE40AA889902EB0111B6
:104F200048603F9805F046FBCDE90C01889800EBFE
:104F3000400054A901EB80004068059005F03AFB61
:104F4000CDE9080150A9889851F82000019005F09A
:104F500031FB00221D4BCDE9020105F001F9CDE93D
:104F6000040104F02BF9CDE90601DDE9082305F081
:104F7000F7F8CDE90A01DDE90C2304F0D5FECDE90F
:104F80000E0104F0E3FD40AA889902EB011188604C
:104F90003F9805F00FFBCDE90C01889800EB40002D
:104FA00054A901EB80008068059005F003FBCDE972
:104FB000080150A9889851F8200009E098AE00082F
:104FC000D40200202D431CEBE2361A3F0000E03FE4
:104FD000019005F0EFFA0022714BCDE9020105F0D6
:104FE000BFF8CDE9040104F0E9F8CDE90601DDE9F7
:104FF000082305F0B5F8CDE90A01DDE90C2304F03A
:1050000093FECDE90E0104F0A1FD40AA889902EBC0
:105010000111C8608898401C889088980428FFF681
:10502000CFAE0020889015E02FA9889801EB0010E2
:105030006FA90F90889801EB001040A90E908898F6
:1050400001EB00100D90DDE90E1201F0B3F8889825
:10505000401C889088980428E6DB2CAA85A92FA8F4
:1050600001F03EF90020889011E010A9889801EB2A
:1050700000102FA90F90889801EB00100E900146A8
:105080002FA80F9A01F0F6F98898401C889088980C
:105090000428EADB28AA10A914A804F0F5F824AA29
:1050A00014A918A804F0F0F820AA18A91CA804F064
:1050B000EBF829980E9002F060FF4FF080410F90BE
:1050C00005F026FC8B9948602598099002F055FF61
:1050D0004FF080410A9005F01BFC0B9005F06AFA36
:1050E000304A314BCDE90C0104F062FDCDE90E01EF
:1050F00004F02CFD8B9988602198099002F03DFF07
:105100004FF080410A9005F003FC0B9005F052FA35
:10511000244A254BCDE90C0104F04AFDCDE90E01EE
:1051200004F014FD8B99C8602D980E902C980F9068
:10513000DDE90E0103F01EFC8B99086000208890C9
:1051400028E08898C0EB00118A9800EBC100243059
:105150000F908898C0EB00118A9800EBC1003430A2
:105160002FA90E90889801EB00100D90DDE90E122A
:1051700001F020F88898C0EB00118A9800EBC1017B
:105180002FAA889802EB00141DCC44311DC18898C9
:10519000401C889088980428D3DB0DF50C7D10BD49
:1051A0000000E03F6E861BF0F9210940704710B502
:1051B000FDF7FAF810BD704710B50248FDF7EBFF98
:1051C00010BD00005804002010B50268204B984222
:1051D0000ED0204B98420BD0B0F1804F08D01E4B20
:1051E000984205D01D4B984202D01D4B984203D1E6
:1051F00022F070024B681A43154B98420ED0154BA3
:1052000098420BD0B0F1804F08D0134B984205D094
:10521000124B984202D0124B984203D122F44072B2
:10522000CB681A4322F080034C6943EA040202600F
:105230008B68C3620B688362054B984202D0054BB2
:10524000984201D10B6903630123436110BD000043
:10525000002C0140003401400004004000080040E0
:10526000000C004030B501F01F05012404FA05F3DD
:10527000046A9C430462046A01F01F0502FA05F502
:105280002C43046230BD30B50C46816821F47F4167
:1052900042EA032525432943816030BD30B5056AC4
:1052A00025F010050562026A4368846924F4E0442D
:1052B00024F440740D6844EA052422F020028D682D
:1052C00042EA0512124DA84200D103E0114DA84256
:1052D00007D100BF22F08002CD6842EA051222F019
:1052E00040020B4DA84202D00A4DA84209D123F436
:1052F000806323F400634D6943EA85038D6943EAC3
:105300008503436084614D688563026230BD00009F
:10531000002C01400034014077B581B004461546A9
:105320000298A062A58500202064222084F83E0017
:105330001C48A16B88621C48A16BC8621B48A16B0A
:1053400008630020A16B486302AE32682368191D10
:105350002B46A06BFCF708FE00BF002000902068E1
:105360000068009020684068009000BF00BF00BF48
:10537000002084F83C0000BF2068C06840F48070C2
:105380002168C8602068406940F0010021684861D8
:105390002068406940F0400021684861002004B066
:1053A00070BD00003D740008C57300083571000829
:1053B00010B5034699629A85DA8500201864222088
:1053C00083F83E0000BF002083F83C0000BF18684F
:1053D000C06840F480701C68E0601868406940F064
:1053E00001001C6860611868C06840F020001C68FB
:1053F000E060002010BD000010B50248FEF79AFAE8
:1054000010BD00007806002010B50248FEF792FAA1
:1054100010BD0000BC06002010B50348011D0C465D
:10542000204601F0A5FA10BD1814002010B503485D
:10543000011D0C46204601F0A9FA10BD18140020E9
:1054400000BFFEE72DE9F041054600240020044698
:1054500009E005EBC400D0E9006332462046FFF7BF
:10546000A7F9601C0446062CF3DBBDE8F0810000C0
:105470000FB470B5002400BF42E0244800EBC40024
:10548000D0E9005122480CC8284604F0A9FF1F4A61
:1054900002EBC40203C210A800EBC40000221346B2
:1054A000D0E90051284604F059FF12D810A800EBAB
:1054B000C400D0E90010154A02EBC402C2E9001092
:1054C00004A800EBC400D0E900532A462046FFF7A9
:1054D0006FF90E4800EBC401D1E9005100221346D8
:1054E000284604F001FE0AD8002213462046FFF7A2
:1054F0005FF90021054A02EBC40211605160641C8F
:10550000062CBADB002070BC5DF814FBD808002024
:10551000700200201CB53349684604F022F8324876
:10552000DDE90012C0E90312304A9169D06805F044
:105530007FFB044605F03EF82B4A8832C2E902019F
:105540002A4AD169106905F073FB044605F032F868
:10555000254A8832C2E90401244A116A506905F0DB
:1055600067FB044605F026F81F4A8832C2E90601A7
:105570001E49086805F01EF81B4AF032C2E9020114
:105580001A49486805F016F8174AF032C2E90401D2
:105590001649886805F00EF8134AF032C2E9060190
:1055A0001249486C05F006F80F4AC2E90E010F498E
:1055B000886C04F0FFFF0C4AC2E908010B49C86C73
:1055C00004F0F8FF084AC2E90A010849086D04F02E
:1055D000F1FF054AC2E90C011146054801F0A4FC9F
:1055E0001CBD00001814002050210020180E0020BF
:1055F0001423002000B593B0402102A8FAF7C5FF9C
:105600001A4803C8CDE90A011848C1688068CDE985
:105610000C01164841690069CDE90E011349D1E931
:105620000601CDE910011249684603F09AFF1148BE
:10563000DDE90012C0E903120F4801680D488160DE
:105640000D480068401C0C49086008200949886121
:105650004862486348640948086202A8086308630E
:10566000074801F061FC13B000BD0000F8130020F2
:1056700018140020A82200201C030020FC02002097
:105680000023002000B58FB0282105A8FAF77DFF80
:1056900014216846FAF779FF01200590000406906E
:1056A000002007900120099002200C90C1030D9169
:1056B0004FF4E0110E9105A8FDF782F808B1FCF750
:1056C000ECF80F20009002200190002002904FF48F
:1056D000806003900020049002216846FCF73AFFA6
:1056E00008B1FCF7DAF80FB000BD000070B5044651
:1056F000002519E004F0800208210D48FCF748FE5F
:105700006006040E00224FF480510A48FCF740FE68
:1057100020210748FCF72AFE044301221103054813
:10572000FCF736FE681CC5B2082DE3DB204670BDD1
:10573000000C01400010014010B5BEB00446182115
:1057400038A8FAF722FFD4E90401CDE93801D4E9F9
:105750001001CDE93C0130212CA8FAF716FF602298
:105760000B4914A8FAF7DFFE2CA938A8FFF7A6F911
:1057700014A92CA8FFF786F9502218A96846FAF751
:10578000D2FE14A80FC8FFF773FE3EB010BD000094
:10579000E0AE00082DE9F74F88B083468A46002026
:1057A0000490059006900790584604F003FF804649
:1057B0000022224B04F0D4FC064603F009FA04460A
:1057C00004F0C4F90490584604F0F4FE8046002228
:1057D0001A4B04F0C5FC064603F0F0FC044604F046
:1057E000B5F9079000200090019002900390504678
:1057F00004F0E0FE80460022104B04F0B1FC0646A7
:1058000003F0E6F9044604F0A1F90090504604F0D4
:10581000D1FE06460022094B04F0A2FC804603F0AC
:10582000CDFC044604F092F90190694604A80A9A56
:1058300000F0C0FC0BB0BDE8F08F00000000E03FBE
:105840000FB400B59FB029981E9020A8C06C1D9081
:1058500020A8406F1C9045981B904D981A90559821
:1058600019904FF07E501190002010900F900E90E4
:105870005698006B08905698006B0790089905F0B1
:1058800047F80A905698C06A06905698C06A0590E4
:10589000069905F03DF808905698806A049056984D
:1058A000806A0390049905F033F806905698406A90
:1058B00004905698406A0390049905F029F80590E1
:1058C000069904F0A3FE0790089904F09FFE099042
:1058D0000A9904F09BFE0B9004F06CFE0022FE4B34
:1058E000CDE90C0104F03AFD0BD25698406A1190B4
:1058F0005698806A10905698C06A0F905698006B20
:105900000E901999084605F003F80C901A9908466C
:1059100004F0FEFF0A901B99084604F0F9FF099075
:105920000A9904F073FE0B900C9904F06FFE0D9031
:1059300002F029FB1890189804F03CFEE74AE84B67
:10594000CDE90C0104F00AFD0FD818991B9804F05A
:10595000D1FE1B9018991A9804F0CCFE1A90DDE93C
:10596000181004F0C7FE199003E000201B901A9055
:1059700019900F99119804F0CBFF0C900E99109884
:1059800004F0C6FF0B900C9905F052F94FF08041DE
:105990000D9004F0BDFF1790DDE90E1004F0B8FF84
:1059A0000C90DDE9101004F0B3FF0B900C9904F09B
:1059B0002DFE4FF080410D9004F0AAFF16900E9935
:1059C000084604F0A5FF0D900F99084604F0A0FFCB
:1059D0000B901099084604F09BFF09901199084616
:1059E00004F096FF0890099905F022F90A900B99A6
:1059F00005F01EF90C900D9904F008FE159016990B
:105A0000199804F085FF0D9015991A9804F080FFFD
:105A10000C900D9905F00CF9149015991B9804F051
:105A200077FF0D901799199804F072FF0C900D995B
:105A300005F0FEF8139017991A9804F069FF0D907D
:105A400016991B9804F064FF0C900D9905F0F0F87E
:105A50001290A4480168149804F05AFF0D905698CB
:105A6000406D01460C900D9804F0D0FD56994865A4
:105A70009C480168139804F04BFF0D905698806D78
:105A800001460C900D9804F0C1FD014656988165C1
:105A900094480168129804F03BFF0D905698C06D31
:105AA00001460C900D9804F0B1FD01465698C16571
:105AB0008D481499006804F02BFF0C901E9904F097
:105AC000A5FD0D905698406D01460C900D9804F080
:105AD0009DFD1E9084481399006804F019FF0C90F6
